:10000000005000205D010000650100006901000052
:1000100000000000000000000000000000000000E0
:100020000000000000000000000000006D01000062
:100030000000000000000000710100002503000026
:100040007901000030B583B000F04AF9314B324AF3
:100050001360324A1360324B324A03E01168196070
:100060000433043230498B42F8D32B4B1A682F4BA0
:100070009A4204D1294B1A682D4B9A4200D0FEE7D0
:10008000244B2C4A13602C4A13602C4B02E00022B4
:100090001A6004332A4A9342F9D3264B1B68002B7B
:1000A00003D1254B1B68002B00D0FEE700F01CF9A4
:1000B00001A8694600F086F8224C234B1C1BA410B3
:1000C000002504E0AA001F4BD35898470135AC42E5
:1000D000F8DC1E4C1E4B1C1BA410002504E0AA00DB
:1000E0001A4BD35898470135AC42F8DC0198009977
:1000F00000F034F9051C174C174B1C1BA41004E02E
:10010000013CA200134BD3589847002CF8DC281C64
:1001100000F034F8BABADECA0000002074000020F3
:1001200000000020441700007800002078563412A8
:1001300032547698780000201401002078000020C6
:10014000180100207C0100007C0100007C010000FF
:100150007C0100007C0100007C01000008B5FFF775
:1001600071FFC046FEE7C046FEE7C046FEE7C04658
:0C017000FEE7C0467047C046FEE7C046F0
:10017C00FEE7C04608B5031C0C4A1268002A02D1DF
:10018C000B490A4A1160094A10680333032293434E
:10019C00C318084A934206D900F0B6F90C23036041
:1001AC000120404201E0014A136008BD7C000020A0
:1001BC0018010020004C002001230360014B0B6050
:1001CC007047C0460400002008B500F09DF9582384
:1001DC0003600120404208BD08B500F095F9582392
:1001EC0003600120404208BD08B500F08DF958238A
:1001FC000360002008BDC04608B500F085F95823FF
:10020C0003600120404208BD08B500F07DF9582379
:10021C0003600120404208BD0FB400B583B004ABAD
:10022C0004CB01930748802100F080FA011E03DD06
:10023C00044800F04BF8011C081C03B008BC04B0C7
:10024C001847C0468400002010B5041C00F03CFA8E
:10025C00011C201C00F03AF80248012100F036F88D
:10026C0010BDC0460C160000F0B54F464646C0B453
:10027C0087B0041C0191435C002B1ED10426301C5A
:10028C00211CABBE041C1BE03E1E102E00D91026F8
:10029C00002304E0227802A9CA5401330134B3428A
:1002AC00F8D302AA914600224946CA540425281CB8
:1002BC004946ABBE8046BF1B00E0019F002FE3D137
:1002CC00019807B00CBC90469946F0BD08B5FFF7F5
:1002DC00CBFF08BD08B500F00DF808BD08B500F05F
:1002EC0001F808BD014A024B1A60704700127A00EF
:1002FC000C000020014A024B1A60704700127A0071
:10030C000C000020034B1860024B1B68002BFBD128
:10031C007047C04604010020044B1B68002B03D01F
:10032C00024A1368013B13607047C0460401002069
:10033C0008B5431E012B04D8081C111CFFF7C6FF7F
:10034C0005E000F0E1F8582303600120404208BDAD
:10035C0010B51A48FFF778FF194800F0ABF9194BA4
:10036C001B68DB6818480121182200F031F9174C82
:10037C0017482168FFF750FF2068FA21890000F028
:10038C0031F80138134B98420DD8134A5060134979
:10039C000B6A1B021B0AC020000603430B620023DE
:1003AC009360073313600024FA208000FFF7AAFF44
:1003BC0001340B48211CFFF72FFFF5E73C1600001A
:1003CC0050160000700000206C1600000C0000207D
:1003DC0088160000FFFFFF0010E000E000ED00E0D9
:1003EC009C160000002243088B4274D303098B42F5
:1003FC005FD3030A8B4244D3030B8B4228D3030CE9
:10040C008B420DD3FF22090212BA030C8B4202D38A
:10041C001212090265D0030B8B4219D300E0090AB2
:10042C00C30B8B4201D3CB03C01A5241830B8B42BB
:10043C0001D38B03C01A5241430B8B4201D34B03A4
:10044C00C01A5241030B8B4201D30B03C01A524109
:10045C00C30A8B4201D3CB02C01A5241830A8B428E
:10046C0001D38B02C01A5241430A8B4201D34B0277
:10047C00C01A5241030A8B4201D30B02C01A5241DB
:10048C00CDD2C3098B4201D3CB01C01A524183098F
:10049C008B4201D38B01C01A524143098B4201D3C9
:1004AC004B01C01A524103098B4201D30B01C01AF4
:1004BC005241C3088B4201D3CB00C01A524183086E
:1004CC008B4201D38B00C01A524143088B4201D39B
:1004DC004B00C01A5241411A00D2014652411046FB
:1004EC007047FFE701B5002000F00CF802BDC046D4
:1004FC000029F7D003B5FFF775FF0EBC4243891AEC
:10050C001847C0467047C046014B18687047C04634
:10051C0070000020F7B55343051C0191171C089C73
:10052C000093002804D08369002B01D100F0D2FA8B
:10053C00244B9C4201D16C6808E0234B9C4201D1B6
:10054C00AC6803E0214B9C4200D1EC68A3891B07EB
:10055C0004D52369002B01D000261CE0281C211C8B
:10056C0000F04CF90026B042F6D025E0A368019AC1
:10057C00013BA360915D002B18DAA26993420EDA5D
:10058C00221C281C00F0E2F8013042424241D0B259
:10059C00002811D10136009B9E42E7D10CE0236864
:1005AC001970236819780A2903D1E9E723681970AF
:1005BC00236801332360EDE7301C391CFFF712FF71
:1005CC00FEBDC046B0160000D0160000F0160000AC
:1005DC0073B5061C0D1C141C0093044B311C2A1CF7
:1005EC001868231CFFF796FF76BDC04670000020EC
:1005FC0070B5051C0E1C002804D08369002B01D19A
:10060C0000F068FAAC68A3891B0702D52369002B9C
:10061C0019D1281C211C00F0F1F8002813D001205E
:10062C00404245E03178002B1BDAA269934211DA83
:10063C00221C281C00F08AF8013042424241D0B200
:10064C000028ECD10136A3683278013BA360002A64
:10065C00E8D10CE023681970236819780A2903D1B2
:10066C00E6E723681970236801332360EAE7002B5F
:10067C0017DAA269934208DB0A23226813702368F5
:10068C0019780A2911D1281C01E0281C0A21221CE6
:10069C0000F05CF8013042424241D0B2002806D052
:1006AC00BDE70A23226813702368013323600A20F4
:1006BC0070BD000008B5034B011C1868FFF798FFCC
:1006CC0008BDC046700000200023C25C0133002A24
:1006DC00FBD1581E704730B5151C9BB0002A04DAAC
:1006EC008B230360012040421DE082226C46009166
:1006FC00049100219200A2818D4200D0691E1A1C27
:10070C0001230291059169465B42CB811E9B041C1F
:10071C0000F0D0FB431C01DA8B232360002D02D0A8
:10072C000023009A13701BB030BD000073B5061C7B
:10073C000D1C141C0093044B311C2A1C1868231C20
:10074C00FFF7C9FF76BDC0467000002070B5051CD0
:10075C000E1C141C002804D08369002B01D100F05E
:10076C00B9F9234B9C4201D16C6808E0214B9C42A7
:10077C0001D1AC6803E0204B9C4200D1EC68A3692A
:10078C00A360A3891B070AD52369002B07D0236814
:10079C002269F6B2981A636998420FDB08E0281CAC
:1007AC00211C00F02BF80028F1D0012040421DE064
:1007BC00281C211C00F020F90028F6D1A368013078
:1007CC00013BA36023685A1C22601E706369984227
:1007DC0005D0A389301CDB0708D50A2E06D1281CAE
:1007EC00211C00F009F90028DFD1301C70BDC04677
:1007FC00B0160000D0160000F0160000354B70B596
:10080C001D68061C0C1C002D05D0AB69002B02D1F9
:10081C00281C00F05FF9304B9C4201D16C6808E059
:10082C002E4B9C4201D1AC6803E02D4B9C4200D175
:10083C00EC68A3899AB2110723D4D10607D40922F4
:10084C000120326037321343A381404240E053070A
:10085C0013D5616B002908D0231C4433994202D074
:10086C00301C00F029FA002363632422A3899343EC
:10087C00A38100236360236923600822A3891343A7
:10088C00A3812369002B0BD1A023A2899B001340C9
:10089C0080229200934203D0301C211C00F0ACF952
:1008AC000123A289134005D00023A36063695B4236
:1008BC00A36103E0910700D46369A360002023695E
:1008CC00834205D1130603D540231A43A281013874
:1008DC0070BDC04670000020B0160000D01600009D
:1008EC00F0160000F7B58A89051C0C1C13075ED4A2
:1008FC004B68002B02DC0B6C002B1ADDE76A002F17
:10090C0017D000232E682B6080235B011A4001D086
:10091C00626D15E0281C216A0123B847021C431C98
:10092C000ED12B68002B0BD01D2B01D0162B02D116
:10093C002E6000205EE04021A3890B43A38159E087
:10094C00A3895B0706D56368D21A636B002B01D0B1
:10095C00236CD21A0023281C216AE76AB847A389A2
:10096C00421C06D12A68002A03D01D2A01D0162A5F
:10097C0019D10022626022692260DB0405D5431C78
:10098C0002D12B68002B00D16065616B2E600029B1
:10099C00CFD0231C4433994202D0281C00F08CF990
:1009AC000020606326E040221343A38122E00F69FC
:1009BC00002FBED00B680F60DB1B01930023920746
:1009CC0000D14B69A360019B002BB2DD281C216A6E
:1009DC003A1C019BA66AB047002806DC4022012085
:1009EC00A38940421343A38104E0019B3F181B1AC7
:1009FC000193E8E7FEBD000038B50B69051C0C1C23
:100A0C00002B01D100201CE0002804D08369002BAE
:100A1C0001D100F05FF80B4B9C4201D16C6808E0EF
:100A2C00094B9C4201D1AC6803E0084B9C4200D1BD
:100A3C00EC680C22A35E002BE4D0281C211CFFF7D1
:100A4C0051FF38BDB0160000D0160000F0160000A3
:100A5C0008B5024900F0AEF808BDC046050A000012
:100A6C00002310B5041C03604360836081814366DE
:100A7C00C281036143618361191C08225C3000F060
:100A8C0013F9054B24626362044BA362044BE362CB
:100A9C00044B236310BDC046DD1300000514000099
:100AAC003D1400006914000070B568254B1E5D43B1
:100ABC000E1C291C743100F045F9041E08D00021CD
:100ACC002A1C016046600C30A060683200F0ECF823
:100ADC00201C70BD836913B5002B28D18364C364BB
:100AEC000365134B134A1B6882620193984201D130
:100AFC0001238361041C00F01FF86060201C00F0CF
:100B0C001BF8A060201C00F017F80421E060002204
:100B1C006068FFF7A5FFA06809210122FFF7A0FF7D
:100B2C00E06812210222FFF79BFF0123A36113BD92
:100B3C00AC1600005D0A0000F8B51D4B061C1D68C4
:100B4C00AB69002B02D1281CFFF7C4FF4835AC68F9
:100B5C006B68013B05D40C22A75E002F10D06834C3
:100B6C00F7E72B68002B06D1301C0421FFF79CFF04
:100B7C002860002801D02D68E9E70C23336016E0CB
:100B8C000123201C5B42E3810233A381676627604B
:100B9C00A760676027616761A7615C30391C082218
:100BAC0000F082F8201C6763A763A764E764F8BDB4
:100BBC00AC160000F7B5041C071C00260191483444
:100BCC00002C16D06368A5680093009B013B009332
:100BDC000DD4AB89012B08D90E22AB5E013304D0A6
:100BEC00381C291C019B984706436835EDE724689F
:100BFC00E6E7301CFEBD0000F0B58B8991B09B0779
:100C0C0006D50B1C47330B600B6101234B6145E090
:100C1C000C1C0E23C95E061C002904DA8023A5894E
:100C2C001D4010D10CE001AA00F044FC0028F5DBBB
:100C3C00F023029D1B021D40194BED186B425D41C8
:100C4C008027FF0001E000254027301C391C00F0F4
:100C5C0079F800280CD1A3899A051FD402221343DA
:100C6C00A381231C4733236023610123636115E0B7
:100C7C0080220C4BB362A38920601343A3812061B3
:100C8C006761002D0AD00E23E15E301C00F024FCBD
:100C9C00002803D00122A3891343A38111B0F0BD16
:100CAC0000E0FFFF5D0A0000031C8218934202D093
:100CBC0019700133FAE7704730B500293ED004397A
:100CCC000B68002B00DAC9181D4A1368141C002B82
:100CDC0002D14B60116031E099420DD208680A18BC
:100CEC009A4203D11368C3180B6053684B602160A0
:100CFC0024E08A4203D8131C5A68002AF9D11D68D3
:100D0C005C198C420BD1096869185818196090420B
:100D1C0014D110685268091819605A600EE08C42A0
:100D2C0002D90C23036009E008680C18944203D123
:100D3C0014685268001908604A60596030BDC0469A
:100D4C000C010020032370B5CC1C9C430834051CFB
:100D5C000C2C01D20C2405E0002C03DA0C2300200F
:100D6C002B6042E08C42F9D3204A1368101C191CEA
:100D7C00002913D00A68121B0DD40B2A02D90A6061
:100D8C008B181FE08B4202D15A6802601BE04A6844
:100D9C005A600B1C17E00B1C4968E9E7144E3368CA
:100DAC00002B03D1281C00F001FB3060281C211CF7
:100DBC0000F0FCFA031C421CD0D00322C61C964344
:100DCC0086420AD11C60181C07210B301A1D88435F
:100DDC00821A0AD05142995007E0311A281C00F0AF
:100DEC00E5FA431CBAD0331CECE770BD0C010020B3
:100DFC0008010020F0B58E6885B0071C0C1C03920E
:100E0C000193B34245D390238A89DB001A423DD02B
:100E1C0003250969236801985B1A029363695D4392
:100E2C00EB0F5D19029B6D1001331B189D4200D214
:100E3C001D1C381C53050FD5291CFFF783FF061EFC
:100E4C0013D0029A216900F078FBA289184B134049
:100E5C0080221343A38111E02A1C00F08BFB061E99
:100E6C000CD1381C2169FFF727FF0C2340220120ED
:100E7C003B60A38940421343A38117E0029B266188
:100E8C00F61826606561019EED1AA560019BB342C0
:100E9C0000D2019E321C2068039900F057FB002001
:100EAC00A3689B1BA36023689E19266005B0F0BD48
:100EBC007FFBFFFFF0B59FB0029005938B890E1C52
:100ECC00171C1B0610D50B69002B0DD14021FFF709
:100EDC0039FF30603061002804D10C23029A0138AC
:100EEC001360D0E040237361002306AD6B612033A7
:100EFC006B761033AB763C1C2378002B03D1E31BB1
:100F0C00049312D003E0252BF9D00134F4E7049BB1
:100F1C000298311C3A1CFFF76DFF431C00D1ACE06A
:100F2C006A69049B944663446B612378002B00D15F
:100F3C00A3E00122002352426A6002A954325218E3
:100F4C0001342B60EB60AB601370AB654F4F2178B5
:100F5C00381C052200F0E6FA002808D0C01B012737
:100F6C008740381C2B68013418432860EEE72B6847
:100F7C00DA0604D55322202102A8121811701A0780
:100F8C0004D553222B2102A81218117022782A2A78
:100F9C0001D0099B0EE0059A111D12680591002ADB
:100FAC0001DB099204E05242EA60022213432B60F7
:100FBC00013409E02278303A092A04D80A214B433B
:100FCC0001349B18F6E7099323782E2B18D16378FC
:100FDC002A2B09D1059B02341A1D1B680592002B84
:100FEC000DDA01235B420AE0002301342278303A07
:100FFC00092A04D80A214B4301349B18F6E70793BE
:10100C00234F2178381C032200F08CFA002807D0DB
:10101C00C01B40278740381C2B68013418432860BC
:10102C0021781C480622671C297600F07BFA0028E0
:10103C0012D0194B002B06D10722059B0733934383
:10104C000833059314E005AB00930298291C321C5D
:10105C00124B00E000BF07E005AB00930298291C7F
:10106C00321C0E4B00F08AF80390039B013304D022
:10107C006B69039A9B186B613DE7B3890B985B0610
:10108C0001D5012040421FB0F0BDC0461017000032
:10109C00161700001A17000000000000010E0000D7
:1010AC00F7B5171C01930A698B6800900C1C9342CE
:1010BC0000DA131C221C3B6043321278002A01D048
:1010CC0001333B6023689B0602D53B6802333B60CF
:1010DC00062523681D401ED0231C43331B785A1E43
:1010EC009341226892061CD53020E1184031C8701B
:1010FC00211C5A1C45310978A21840320233D17098
:10110C000FE0221C0123009801991932089EB04768
:10111C00431C0ED00135E3683A689B1A9D42F0DB04
:10112C00DAE7221C009801994332089DA847431C1A
:10113C0002D10120404220E006232068E1683A6891
:10114C0003400025042B03D18D1AEB43DB171D4004
:10115C00A3682269934201DD9B1AED180027AF4268
:10116C000ADA221C0123009801991A32089EB04712
:10117C00431CDED00137F2E70020FEBDF0B58BB08A
:10118C0006920A1C43320793059004920A7E0C1CAB
:10119C00109B6E2A00D1A8E011D8632A22D009D85E
:1011AC00002A00D1B2E0582A00D0C2E045310A70C2
:1011BC007C4A4FE0642A1DD0692A1BD0B9E0732AFF
:1011CC0000D1A7E009D86F2A29D0702A00D0B0E04E
:1011DC00202209680A43226037E0752A1FD0782A3A
:1011EC0033D0A6E00D1C1A684235111D1960136826
:1011FC002B70A1E021681A68080603D5111D19602F
:10120C00166805E04906F9D5111D19600023D65E54
:10121C00002E3BDA2D23049A7642137036E02168B7
:10122C001A68080603D5111D1960166805E04906F1
:10123C00F9D5111D19601668B6B25A4B227E03936C
:10124C000A276F2A1DD108271BE0221C7821453262
:10125C001170554A19680392081D226818600E68AF
:10126C00100602D4500600D5B6B2D30702D52023FF
:10127C001A4322601027002E03D1202322689A43A0
:10128C002260231C002243331A7002E00A27454BCC
:10129C0003936368A360002B03DB04222168914352
:1012AC002160002E02D1049D002B0ED0049D301C19
:1012BC00391CFFF71DF9039B013D5B5C301C2B7047
:1012CC00391CFFF78FF8061EF1D1082F09D12368BE
:1012DC00DB0706D563682269934202DC3023013DAB
:1012EC002B70049B5B1B23612BE009681A680806B2
:1012FC0007D4490605D5111D19601368A28A1A80F6
:10130C0004E0111D1960136862691A600023049DC2
:10131C00236116E01A68111D196015680021281C3C
:10132C00626800F0FFF8002801D0401B6060636821
:10133C0003E0251C42352A70012323610023049A03
:10134C001370079B05980093211C069B09AAFFF7B5
:10135C00A7FE431C02D10120404221E02A1C236934
:10136C0005980699079DA847431CF4D023689B0752
:10137C0005D4099BE068984212DA181C10E000258D
:10138C00E368099A9B1A9D42F3DA221C0123059803
:10139C0006991932079EB047431CDCD00135EFE7A4
:1013AC000BB0F0BD211700003217000038B5002338
:1013BC00064C051C081C2360FEF7DCFE431C03D105
:1013CC002368002B00D02B6038BDC04610010020D4
:1013DC0038B50C1C0E25495F00F0F2F8002803DB31
:1013EC00636D1B18636503E0A289024B1340A38154
:1013FC0038BDC046FFEFFFFFF8B51E1C8B89051CDE
:10140C000C1C171CDB0505D50E23C95E002202231C
:10141C0000F074F8A289054B281C1340A3813A1CD8
:10142C000E23E15E331C00F01FF8F8BDFFEFFFFF49
:10143C0038B50C1C0E25495F00F060F8A389421CDE
:10144C0003D1054A1340A38104E0802252011343C7
:10145C00A381606538BDC046FFEFFFFF08B50E23C2
:10146C00C95E00F015F808BD38B5051C0020074C06
:10147C002060081C111C1A1CFEF75AFF431C03D1D8
:10148C002368002B00D02B6038BDC0461001002013
:10149C0038B50023064C051C081C2360FEF794FE8F
:1014AC00431C03D12368002B00D02B6038BDC046F1
:1014BC001001002038B50023064C051C081C111C1B
:1014CC002360FEF789FE431C03D12368002B00D058
:1014DC002B6038BD1001002038B50023064C051CCC
:1014EC00081C2360FEF780FE431C03D12368002BED
:1014FC0000D02B6038BDC0461001002038B5051C4B
:10150C000020074C2060081C111C1A1CFEF774FEEE
:10151C00431C03D12368002B00D02B6038BDC04680
:10152C0010010020C9B28218904204D003788B427B
:10153C0002D00130F8E700207047002310B5934229
:10154C0003D0CC5CC4540133F9E710BD10B5814213
:10155C0008D28B18984205D29B1A013A09D3995C90
:10156C008154FAE70023934203D0CC5CC45401337A
:10157C00F9E710BDF8B5061C0C1C151C002904D18C
:10158C00111CFFF7DFFB041C18E0002A03D1FFF746
:10159C0093FB2C1C12E000F027F8A8420ED2301C52
:1015AC00291CFFF7CFFB071E07D0211C2A1CFFF7B5
:1015BC00C4FF301C211CFFF77FFB3C1C201CF8BD1A
:1015CC0038B5051C0020074C2060081C111C1A1C87
:1015DC00FEF71AFE431C03D12368002B00D02B60AE
:1015EC0038BDC046100100200B1F1A68101F002ABE
:1015FC0004DA891804390B68D018043870470000D5
:10160C000A0000006D61696E28617267633D256494
:10161C002C20617267763D5B000000002C200000DE
:10162C0022257322000000005D293B0A0000000007
:10163C0048656C6C6F2041524D20576F726C642161
:10164C00000000005374616E64617264206F7574E5
:10165C00707574206D6573736167652E00000000F2
:10166C005374616E64617264206572726F72206D66
:10167C006573736167652E0A0000000053797374FB
:10168C00656D20636C6F636B3A202575487A0A0090
:10169C005365636F6E642025640A000043000000EC
:1016AC0010000020000000000000000000000000FE
:1016BC00000000000000000000000000000000001E
:1016CC00000000000000000000000000000000000E
:1016DC0000000000000000000000000000000000FE
:1016EC0000000000000000000000000000000000EE
:1016FC0000000000000000000000000000000000DE
:10170C0000000000232D302B2000686C4C00656617
:10171C006745464700303132333435363738394136
:10172C00424344454600303132333435363738394C
:07173C006162636465660051
:1017440078563412800000200000000000127A0055
:1017540000000000B0160000D0160000F0160000D3
:101764000000000000000000000000000000000075
:10177400A8160000000000000000000000000000A7
:101784000000000000000000000000000000000055
:101794000000000000000000000000000000000045
:1017A4000000000000000000000000000000000035
:0817B400100000203254769869
:0400000300000045B4
:00000001FF
